:100000000C942A000C9447000C9447000C94470071
:100010000C9447000C9447000C9447000C94470044
:100020000C9447000C9447000C9447000C94470034
:100030000C9447000C946B080C9447000C944700F8
:100040000C94350C0C9447000C9447000C9447001A
:100050000C94470011241FBECFE5D8E0DEBFCDBF12
:1000600011E0A0E6B0E0E6E1F4E302C005900D92F5
:10007000AE38B107D9F711E0AEE8B1E001C01D928A
:10008000AF39B107E1F70E9439160C94091A0C94A4
:100090000000EF92FF920F931F937B018C0120E0F1
:1000A00030E040E05FE40E94F50388238CF0C80153
:1000B000B70120E030E040E05FE40E94C1010E940F
:1000C00085049B01AC01205030404040504806C0A0
:1000D000C801B7010E9485049B01AC01B901CA01A6
:1000E0001F910F91FF90EF900895A0E0B0E0EBE733
:1000F000F0E00C94D219DC012B01FA019C919230B2
:1001000008F439C1EB018881823008F433C194309E
:1001100069F4843009F02FC111969C91119789815F
:10012000981709F428C1A0E8B0E025C1843009F48B
:1001300021C18230A9F4923009F01DC19A01AD01AC
:1001400088E0EA010990AE01E90109929E0181501F
:10015000C1F7E201898111969C918923818308C1AD
:10016000923009F407C112962D903C901397EB0141
:100170008A819B811496AD90BD90CD90DC901797AD
:10018000EC80FD800E811F819101281B390BB90184
:1001900037FF04C066277727621B730B6032710537
:1001A0000CF061C0121613066CF537014801062EDB
:1001B00004C096948794779467940A94D2F721E0C8
:1001C00030E040E050E004C0220F331F441F551FB1
:1001D0006A95D2F721503040404050402E213F21B7
:1001E00040235123211531054105510521F021E01E
:1001F00030E040E050E079018A01E628F72808293C
:1002000019293CC0232BD1F1260E371E350146019A
:10021000062E04C096948794779467940A94D2F734
:1002200021E030E040E050E004C0220F331F441FC3
:10023000551F6A95D2F721503040404050402A2146
:100240003B214C215D21211531054105510521F04E
:1002500021E030E040E050E059016A01A628B728CB
:10026000C828D9280BC0821593052CF01C01AA249C
:10027000BB24650103C0EE24FF24870111969C91E5
:10028000D20111968C91981709F445C0992339F041
:10029000A80197012A193B094C095D0906C0A6016E
:1002A00095012E193F09400B510B57FD08C01182D3
:1002B0003382228224833583468357831DC081E0A5
:1002C00081833382228288279927DC01821B930B4A
:1002D000A40BB50B84839583A683B7830DC0220F2F
:1002E000331F441F551F24833583468357838281E0
:1002F000938101979383828324813581468157813D
:10030000DA01C9010197A109B1098F5F9F4FAF4F72
:10031000BF4328F30BC0918333822282EA0CFB1C7B
:100320000C1D1D1DE482F5820683178383E0808304
:10033000248135814681578157FF1AC0C901AA27F8
:1003400097FDA095BA2F81709070A070B0705695EF
:10035000479537952795822B932BA42BB52B848318
:100360009583A683B7838281938101969383828349
:10037000DF0101C0D201CD01CDB7DEB7E2E10C94BF
:10038000EE19A0E2B0E0E7ECF1E00C94DE1969832D
:100390007A838B839C832D833E834F835887E9E048
:1003A000EE2EF12CEC0EFD1ECE010196B7010E943F
:1003B00076068E010F5E1F4FCE010596B8010E9492
:1003C00076068A8991E089278A8BC701B801AE0138
:1003D000475E5F4F0E9475000E94A105A096E6E06F
:1003E0000C94FA19A0E2B0E0E8EFF1E00C94DE1909
:1003F00069837A838B839C832D833E834F835887C5
:10040000F9E0EF2EF12CEC0EFD1ECE010196B701A6
:100410000E9476068E010F5E1F4FCE010596B80131
:100420000E947606C701B801AE01475E5F4F0E9489
:1004300075000E94A105A096E6E00C94FA19A0E2CE
:10044000B0E0E5E2F2E00C94D21969837A838B8301
:100450009C832D833E834F835887CE010196BE0136
:10046000675F7F4F0E947606CE010596BE016F5EE4
:100470007F4F0E9476069985923088F08989823074
:10048000C8F0943019F4823051F404C0843029F457
:10049000923081F480E890E0C6C0923049F420E0C8
:1004A0009A858A89981321E02A87CE010996BBC0D4
:1004B000823049F420E09A858A89981321E02A8BBA
:1004C000CE014196B0C02D843E844F8458886D88FB
:1004D0007E888F88988CEE24FF248701AA24BB2471
:1004E000650140E050E060E070E0E0E0F0E0C10174
:1004F00081709070892BE9F0E60CF71C081D191D1E
:100500009A01AB012A0D3B1D4C1D5D1D80E090E062
:10051000A0E0B0E0E614F7040805190520F481E036
:1005200090E0A0E0B0E0BA01A901480F591F6A1F8E
:100530007B1FAA0CBB1CCC1CDD1C97FE08C081E0F5
:1005400090E0A0E0B0E0A82AB92ACA2ADB2A3196B6
:10055000E032F10549F0660C771C881C991C569412
:10056000479437942794C3CFFA85EA892B893C892D
:100570008B859C85280F391F2E5F3F4F17C0CA01FE
:1005800081709070892B61F016950795F794E79428
:1005900080E090E0A0E0B0E8E82AF92A0A2B1B2BC3
:1005A00076956795579547952F5F3F4F77FDE7CF36
:1005B0000CC0440F551F661F771F17FD4160EE0CDE
:1005C000FF1C001F111F21503040403090E05907A0
:1005D00090E0690790E4790760F32B8F3C8FDB0193
:1005E000CA018F779070A070B07080349105A1051A
:1005F000B10561F447FD0AC0E114F10401051105DC
:1006000029F0405C5F4F6F4F7F4F40781A8EFE1786
:1006100011F081E08A8F4D8F5E8F6F8F78A383E01A
:10062000898FCE0149960E94A105A096E2E10C9423
:10063000EE19A8E1B0E0EFE1F3E00C94DA19698378
:100640007A838B839C832D833E834F835887B9E0C5
:10065000EB2EF12CEC0EFD1ECE010196B7010E948F
:1006600076068E010F5E1F4FCE010596B8010E94DF
:1006700076062985223008F47EC03989323010F49C
:10068000B8017CC08A859A8989278A87243011F02D
:10069000223031F4231709F06EC060E870E06EC0BC
:1006A000343039F41D861E861F86188A1C861B86E8
:1006B00004C0323021F484E08987B7015FC02B8504
:1006C0003C858B899C89281B390B3C872B87ED84C3
:1006D000FE840F851889AD88BE88CF88D88CEA142F
:1006E000FB040C051D0540F4EE0CFF1C001F111F40
:1006F000215030403C872B8720E030E040E050E044
:1007000080E090E0A0E0B0E460E070E0EA14FB0478
:100710000C051D0540F0282B392B4A2B5B2BEA18C2
:10072000FB080C091D09B695A79597958795EE0CC2
:10073000FF1C001F111F6F5F7F4F6F31710531F775
:10074000DA01C9018F779070A070B0708034910584
:10075000A105B10561F427FD0AC0E114F10401050A
:10076000110529F0205C3F4F4F4F5F4F20782D87B8
:100770003E874F87588BBE01675F7F4FCB010E943A
:10078000A1056896EAE00C94F619A8E1B0E0EBEC5C
:10079000F3E00C94DE1969837A838B839C832D8329
:1007A0003E834F83588789E0E82EF12CEC0EFD1E26
:1007B000CE010196B7010E9476068E010F5E1F4F93
:1007C000CE010596B8010E9476068985823040F0F8
:1007D0008989823028F0C701B8010E94EE0601C065
:1007E0008FEF6896E6E00C94FA19A8E1B0E0EBEF21
:1007F000F3E00C94DE1969837A838B839C832D83C9
:100800003E834F83588789E0E82EF12CEC0EFD1EC5
:10081000CE010196B7010E9476068E010F5E1F4F32
:10082000CE010596B8010E9476068985823040F097
:100830008989823028F0C701B8010E94EE0601C004
:100840008FEF6896E6E00C94FA19A8E1B0E0EBE2CD
:10085000F4E00C94DE1969837A838B839C832D8367
:100860003E834F83588789E0E82EF12CEC0EFD1E65
:10087000CE010196B7010E9476068E010F5E1F4FD2
:10088000CE010596B8010E9476068985823040F037
:100890008989823028F0C701B8010E94EE0601C0A4
:1008A00081E06896E6E00C94FA19A8E1B0E0EBE587
:1008B000F4E00C94DE1969837A838B839C832D8307
:1008C0003E834F83588789E0E82EF12CEC0EFD1E05
:1008D000CE010196B7010E9476068E010F5E1F4F72
:1008E000CE010596B8010E9476068985823040F0D7
:1008F0008989823028F0C701B8010E94EE0601C044
:1009000081E06896E6E00C94FA19ACE0B0E0EBE820
:10091000F4E00C94E21969837A838B839C83CE0183
:100920000196BE016B5F7F4F0E9476068D818230FB
:1009300061F1823050F1843021F48E81882351F1AD
:100940002EC02F81388537FD20C06E812F313105B3
:100950001CF06623F9F023C08EE190E0821B930B1C
:1009600029853A854B855C8504C056954795379512
:1009700027958A95D2F76623B1F05095409530952A
:1009800021953F4F4F4F5F4F0EC020E030E040E0D9
:1009900050E009C02FEF3FEF4FEF5FE704C020E0CA
:1009A00030E040E050E8B901CA012C96E2E00C9436
:1009B000FE19A8E0B0E0EFEDF4E00C94DA197B0149
:1009C0008C01611571058105910519F482E0898317
:1009D00060C083E089838EE1C82ED12CDC82CB827B
:1009E000ED82FE820F831887C801B7010E9452056D
:1009F000FC013197F7FF3BC0222733272E1B3F0B0B
:100A000057016801022E04C0D694C794B794A794E6
:100A10000A94D2F740E050E060E070E081E090E0BE
:100A2000A0E0B0E004C0880F991FAA1FBB1F2A9541
:100A3000D2F70197A109B1098E219F21A023B123EB
:100A40000097A105B10521F041E050E060E070E0C1
:100A50004A295B296C297D294D835E836F837887C2
:100A60008EE190E08E1B9F0B9C838B8312C030978E
:100A700081F00E2E04C0EE0CFF1C001F111F0A9403
:100A8000D2F7ED82FE820F831887CE1ADF0ADC824E
:100A9000CB821A82CE0101960E94A1052896EAE037
:100AA0000C94F619EF92FF920F931F937B018C0128
:100AB00080E0E81680E0F80681E0080780E018078B
:100AC00088F48FEFE816F1040105110531F028F0E4
:100AD00088E090E0A0E0B0E017C080E090E0A0E007
:100AE000B0E012C080E0E81680E0F80680E0080779
:100AF00081E0180728F088E190E0A0E0B0E004C0B1
:100B000080E190E0A0E0B0E020E230E040E050E0A2
:100B1000281B390B4A0B5B0B04C016950795F794FD
:100B2000E7948A95D2F7F701E857FF4F8081281B99
:100B3000310941095109C9011F910F91FF90EF90AF
:100B40000895DF92EF92FF920F931F93FC01E480D0
:100B5000F58006811781D1808081823048F480E061
:100B600090E0A0E1B0E0E82AF92A0A2B1B2BA5C0EF
:100B7000843009F49FC0823021F4EE24FF248701E1
:100B800005C0E114F1040105110519F4E0E0F0E0FD
:100B900096C0628173819FEF623879070CF05BC069
:100BA00022E83FEF261B370B2A3131052CF020E0DD
:100BB00030E040E050E02AC0B801A701022E04C096
:100BC00076956795579547950A94D2F781E090E01E
:100BD000A0E0B0E004C0880F991FAA1FBB1F2A9590
:100BE000D2F70197A109B1098E219F21A023B1233A
:100BF0000097A105B10521F081E090E0A0E0B0E010
:100C00009A01AB01282B392B4A2B5B2BDA01C90146
:100C10008F779070A070B07080349105A105B105F8
:100C200039F427FF09C0205C3F4F4F4F5F4F04C08E
:100C3000215C3F4F4F4F5F4FE0E0F0E02030A0E0FD
:100C40003A07A0E04A07A0E45A0710F0E1E0F0E01C
:100C500079018A0127C06038710564F5FB01E1580C
:100C6000FF4FD801C7018F779070A070B0708034AB
:100C70009105A105B10539F4E7FE0DC080E490E0CF
:100C8000A0E0B0E004C08FE390E0A0E0B0E0E80EA8
:100C9000F91E0A1F1B1F17FF05C016950795F7942D
:100CA000E794319687E016950795F794E7948A952F
:100CB000D1F705C0EE24FF248701EFEFF0E06E2F9F
:100CC000679566276795902F9F77D794DD24D794F3
:100CD0008E2F8695492F462B582F5D29B701CA01C3
:100CE0001F910F91FF90EF90DF900895FC01DB01C1
:100CF000408151812281622F6F7770E0221F22276D
:100D0000221F9381892F880F822B282F30E0991F73
:100D10009927991F11969C93119721153105A9F5D3
:100D2000411551056105710511F482E037C082E873
:100D30009FEF13969C938E9312979A01AB0167E0F5
:100D4000220F331F441F551F6A95D1F783E08C9300
:100D50000DC0220F331F441F551F12968D919C9179
:100D60001397019713969C938E931297203080E0EF
:100D7000380780E0480780E4580758F314962D930D
:100D80003D934D935C93179708952F3F310579F468
:100D9000411551056105710519F484E08C9308959E
:100DA00064FF03C081E08C9312C01C9210C02F57C7
:100DB000304013963C932E93129783E08C9387E0F8
:100DC000440F551F661F771F8A95D1F770641496DC
:100DD0004D935D936D937C93179708951F93DC015A
:100DE000FB019C91923008F447C08081823008F466
:100DF00043C0943051F411961C91843099F581814F
:100E0000682F70E0611B71093FC0843021F092307F
:100E100031F48230B9F18181882389F12DC0119696
:100E20001C9111978230F1F081811817D9F4129634
:100E30002D913C911397828193818217930794F0AF
:100E400028173907BCF014968D919D910D90BC9197
:100E5000A02D2481358146815781281739074A07FB
:100E60005B0718F4112341F00AC082179307A40707
:100E7000B50740F4112319F061E070E005C06FEF91
:100E80007FEF02C060E070E0CB011F910895DF9317
:100E9000CF9300D00F92CDB7DEB79B838A8381E0DA
:100EA00089838A819B81009719F482E0898399C0A4
:100EB000ABE2B0E0EBE2F0E080818D7F8C93ABE2BF
:100EC000B0E0EBE2F0E08081282FEA81FB818481B1
:100ED000882F90E0880F991F822B8C93EA81FB81E9
:100EE0008481882341F4E0E4F0E01082E9E2F0E05C
:100EF00083E380830EC0EA81FB818481813041F4E9
:100F0000E0E4F0E01082E9E2F0E087E6808301C0EF
:100F10001982EA81FB818181882321F1EA81FB81A9
:100F20008181843079F4AAE2B0E0EAE2F0E08081E5
:100F300084608C93A0E4B0E0E0E4F0E08081866817
:100F40008C9310C0A0E4B0E0E0E4F0E08081282FB2
:100F5000EA81FB818181882F90E0880F991F80684A
:100F6000822B8C93EA81FB8182818823A1F0A0E40B
:100F7000B0E0E0E4F0E08081282FEA81FB8182810B
:100F8000882F90E082959295907F9827807F982770
:100F90008068822B8C93EA81FB818381882339F0DE
:100FA000A0E4B0E0E0E4F0E0808188688C93AAE2FD
:100FB000B0E0EAE2F0E08081877E8C93AAE2B0E0C4
:100FC000EAE2F0E08081282FEA81FB818081882F8E
:100FD00090E0880F991F880F991F880F991F822B07
:100FE0008C9389810F900F900F90CF91DF9108958E
:100FF000DF93CF9300D00F92CDB7DEB79B838A8368
:1010000081E08983EBE2F0E08081829586958770AC
:10101000882F90E0817090700097A1F3ECE2F0E0EF
:101020008A81808389810F900F900F90CF91DF91FB
:101030000895DF93CF9300D00F92CDB7DEB79B8397
:101040008A8381E089838A819B81009719F482E0F9
:1010500089830EC0EBE2F0E080818823DCF7ECE2CC
:10106000F0E08081882F90E0EA81FB81918380838A
:1010700089810F900F900F90CF91DF910895DF93AA
:10108000CF9300D00F92CDB7DEB79B838A8381E0E8
:1010900089838A819B810097A9F08A819B819093A3
:1010A0008F0180938E01AFE5B0E0EFE5F0E0808145
:1010B00080688C93AAE2B0E0EAE2F0E08081806888
:1010C0008C9302C082E0898389810F900F900F90EA
:1010D000CF91DF9108951F920F920FB60F921124B6
:1010E0002F933F934F935F936F937F938F939F9330
:1010F000AF93BF93EF93FF93DF93CF930F92CDB74F
:10110000DEB7ECE2F0E08081898380918E019091DE
:101110008F01009731F0E0918E01F0918F0189816C
:1011200009950F90CF91DF91FF91EF91BF91AF9112
:101130009F918F917F916F915F914F913F912F91EF
:101140000F900FBE0F901F901895DF93CF9300D094
:1011500000D00F92CDB7DEB78A836B8381E089839D
:101160008A81282F30E03D832C838C819D818230C1
:101170009105D9F02C813D812330310534F48C81E7
:101180009D818130910561F01FC02C813D8123300C
:10119000310581F08C819D818430910581F014C0EE
:1011A000EAE3F0E08B81808311C0E7E3F0E08B811C
:1011B00080830CC0E4E3F0E08B81808307C0E1E32F
:1011C000F0E08B81808302C082E0898389810F9067
:1011D0000F900F900F900F90CF91DF910895DF93B4
:1011E000CF9300D000D00F92CDB7DEB78A836B8348
:1011F00081E089838A81282F30E03D832C838C8194
:101200009D8182309105D9F02C813D8123303105BB
:1012100034F48C819D818130910561F01FC02C8157
:101220003D812330310581F08C819D818430910591
:1012300081F014C0EBE3F0E08B81808311C0E8E320
:10124000F0E08B8180830CC0E5E3F0E08B8180834C
:1012500007C0E2E3F0E08B81808302C082E08983F3
:1012600089810F900F900F900F900F90CF91DF9189
:101270000895DF93CF9300D000D000D0CDB7DEB774
:101280008A837C836B8381E089838A81282F30E085
:101290003E832D838D819E8182309105E9F02D81E1
:1012A0003E812330310534F48D819E81813091055A
:1012B00061F027C02D813E8123303105A1F08D8161
:1012C0009E8184309105B1F01CC0E9E3F0E080819B
:1012D000EB81FC81808317C0E6E3F0E08081EB8145
:1012E000FC81808310C0E3E3F0E08081EB81FC812E
:1012F000808309C0E0E3F0E08081EB81FC818083A2
:1013000002C082E08983898126960FB6F894DEBFF9
:101310000FBECDBFCF91DF910895DF93CF9300D063
:1013200000D000D0CDB7DEB78A836B834C8381E0D9
:1013300089838B81883008F0EEC08A81282F30E0C5
:101340003E832D838D819E818230910509F44AC0B0
:101350002D813E812330310534F48D819E81813091
:10136000910571F0D5C02D813E812330310509F4FE
:101370006BC08D819E818430910509F497C0C8C0EF
:101380008C818130A9F4AAE3B0E0EAE3F0E0808147
:10139000482F8B81282F30E081E090E0022E02C0A0
:1013A000880F991F0A94E2F7809584238C93B5C027
:1013B0008C818230A1F4AAE3B0E0EAE3F0E080811E
:1013C000482F8B81282F30E081E090E0022E02C070
:1013D000880F991F0A94E2F7842B8C939EC084E0B7
:1013E00089839BC08C818130A9F4A7E3B0E0E7E357
:1013F000F0E08081482F8B81282F30E081E090E061
:10140000022E02C0880F991F0A94E2F78095842368
:101410008C9383C08C818230A1F4A7E3B0E0E7E332
:10142000F0E08081482F8B81282F30E081E090E030
:10143000022E02C0880F991F0A94E2F7842B8C9326
:101440006CC084E0898369C08C818130A9F4A4E3F5
:10145000B0E0E4E3F0E08081482F8B81282F30E07A
:1014600081E090E0022E02C0880F991F0A94E2F7F3
:10147000809584238C9351C08C818230A1F4A4E3A5
:10148000B0E0E4E3F0E08081482F8B81282F30E04A
:1014900081E090E0022E02C0880F991F0A94E2F7C3
:1014A000842B8C933AC084E0898337C08C8181304F
:1014B000A9F4A1E3B0E0E1E3F0E08081482F8B8163
:1014C000282F30E081E090E0022E02C0880F991FA3
:1014D0000A94E2F7809584238C931FC08C8182301C
:1014E000A1F4A1E3B0E0E1E3F0E08081482F8B813B
:1014F000282F30E081E090E0022E02C0880F991F73
:101500000A94E2F7842B8C9308C084E0898305C099
:1015100082E0898302C083E08983898126960FB6A1
:10152000F894DEBF0FBECDBFCF91DF910895DF935A
:10153000CF9300D000D000D0CDB7DEB78A836B83C5
:101540004C8381E089838B81883008F0EEC08A81EA
:10155000282F30E03E832D838D819E81823091053E
:1015600009F44AC02D813E812330310534F48D8148
:101570009E818130910571F0D5C02D813E8123304F
:10158000310509F46BC08D819E818430910509F489
:1015900097C0C8C08C818130A9F4ABE3B0E0EBE325
:1015A000F0E08081482F8B81282F30E081E090E0AF
:1015B000022E02C0880F991F0A94E2F780958423B7
:1015C0008C93B5C08C818230A1F4ABE3B0E0EBE347
:1015D000F0E08081482F8B81282F30E081E090E07F
:1015E000022E02C0880F991F0A94E2F7842B8C9375
:1015F0009EC085E089839BC08C818130A9F4A8E3DB
:10160000B0E0E8E3F0E08081482F8B81282F30E0C4
:1016100081E090E0022E02C0880F991F0A94E2F741
:10162000809584238C9383C08C818230A1F4A8E3BD
:10163000B0E0E8E3F0E08081482F8B81282F30E094
:1016400081E090E0022E02C0880F991F0A94E2F711
:10165000842B8C936CC085E0898369C08C81813038
:10166000A9F4A5E3B0E0E5E3F0E08081482F8B81A9
:10167000282F30E081E090E0022E02C0880F991FF1
:101680000A94E2F7809584238C9351C08C81823038
:10169000A1F4A5E3B0E0E5E3F0E08081482F8B8181
:1016A000282F30E081E090E0022E02C0880F991FC1
:1016B0000A94E2F7842B8C933AC085E0898337C083
:1016C0008C818130A9F4A2E3B0E0E2E3F0E0808114
:1016D000482F8B81282F30E081E090E0022E02C05D
:1016E000880F991F0A94E2F7809584238C931FC07A
:1016F0008C818230A1F4A2E3B0E0E2E3F0E08081EB
:10170000482F8B81282F30E081E090E0022E02C02C
:10171000880F991F0A94E2F7842B8C9308C085E008
:10172000898305C082E0898302C083E0898389813F
:1017300026960FB6F894DEBF0FBECDBFCF91DF91D6
:101740000895DF93CF93CDB7DEB727970FB6F89400
:10175000DEBF0FBECDBF8A836B835D834C8381E088
:1017600089838B81883008F074C08A81282F30E00B
:101770003F832E834E815F814230510559F18E8126
:101780009F818330910534F42E813F8121303105D2
:1017900069F05CC04E815F814330510579F18E81E3
:1017A0009F818430910509F43DC050C0E9E3F0E029
:1017B0008081282F30E08B81882F90E0A90102C022
:1017C000559547958A95E2F7CA018170EC81FD81B4
:1017D000808341C0E6E3F0E08081282F30E08B81F8
:1017E000882F90E0A90102C0559547958A95E2F7A8
:1017F000CA018170EC81FD8180832DC0E3E3F0E0BC
:101800008081282F30E08B81882F90E0A90102C0D1
:10181000559547958A95E2F7CA018170EC81FD8163
:10182000808319C0E0E3F0E08081282F30E08B81D5
:10183000882F90E0A90102C0559547958A95E2F757
:10184000CA018170EC81FD81808305C082E08983BB
:1018500002C083E08983898127960FB6F894DEBFA2
:101860000FBECDBFCF91DF9108951F920F920FB69B
:101870000F9211242F933F934F935F936F937F9316
:101880008F939F93AF93BF93EF93FF93DF93CF9388
:10189000CDB7DEB78091900190919101009729F02A
:1018A000E0919001F09191010995CF91DF91FF9125
:1018B000EF91BF91AF919F918F917F916F915F91C8
:1018C0004F913F912F910F900FBE0F901F90189541
:1018D000DF93CF93CDB7DEB7A7E2B0E0E7E2F0E069
:1018E000808180648C93A7E2B0E0E7E2F0E0808141
:1018F0008F778C93A6E2B0E0E6E2F0E08081887F0B
:101900008C93A6E2B0E0E6E2F0E0808186608C9302
:10191000A6E2B0E0E6E2F0E0808180688C93CF91AF
:10192000DF910895DF93CF930F92CDB7DEB7898310
:10193000A7E2B0E0E7E2F0E08081807E8C93A7E24E
:10194000B0E0E7E2F0E090818981892B8C93A6E2F8
:10195000B0E0E6E2F0E0808180648C930F90CF915C
:10196000DF910895DF93CF9300D0CDB7DEB78983A1
:101970006A83A7E2B0E0E7E2F0E08081807E8C93AA
:10198000A7E2B0E0E7E2F0E090818A81892B8C93B6
:10199000A0E5B0E0E0E5F0E080818F718C93A0E5F8
:1019A000B0E0E0E5F0E08081282F8981882F90E089
:1019B000880F991F82959295907F9827807F98270E
:1019C000822B8C93A6E2B0E0E6E2F0E080818062B8
:1019D0008C93A6E2B0E0E6E2F0E0808180648C9334
:1019E0000F900F90CF91DF910895DF93CF93CDB7F4
:1019F000DEB72C970FB6F894DEBF0FBECDBF80E0E8
:101A000090E0A0E0B0E089879A87AB87BC8780E050
:101A100090E0A0E0B0E08D839E83AF83B88780E044
:101A200090E0A0E0B0E089839A83AB83BC8380E040
:101A300090E4ACE9B5E48D839E83AF83B887A7E2D9
:101A4000B0E0E7E2F0E080818F7D8C936D817E8154
:101A50008F81988520E030E040E854E40E9419032B
:101A6000DC01CB0189839A83AB83BC83E4E2F0E0A1
:101A700080819181CC01A0E0B0E0BC01CD010E9449
:101A8000D904DC01CB01BC01CD0129813A814B8114
:101A90005C810E941F02DC01CB0189879A87AB879A
:101AA000BC8789859A85AB85BC85BC01CD012C9608
:101AB0000FB6F894DEBF0FBECDBFCF91DF91089572
:101AC000DF93CF93CDB7DEB7A6E2B0E0E6E2F0E079
:101AD000808188608C93CF91DF910895DF93CF93BD
:101AE000CDB7DEB7A6E2B0E0E6E2F0E08081877F26
:101AF0008C93CF91DF910895DF93CF9300D0CDB732
:101B0000DEB79A83898389819A81009731F0898130
:101B10009A8190939101809390010F900F90CF91B3
:101B2000DF9108950F931F93DF93CF93CDB7DEB767
:101B3000CF54D0400FB6F894DEBF0FBECDBFFE012C
:101B4000E15BFF4F80E28083FE01E25BFF4F88E0B4
:101B50008083FE01E35BFF4F84E08083DE01A15BB5
:101B6000BF4FFE01E15BFF4F808188618C93DE01F6
:101B7000A25BBF4FFE01E25BFF4F808186608C93CA
:101B8000DE01A35BBF4FFE01E35BFF4F80818260FC
:101B90008C9383E06FEF0E94A50882E060E042E052
:101BA0000E948D0982E061E042E00E948D0982E09E
:101BB00062E042E00E948D09FE01E75BFF4F80E09A
:101BC00090E0A0E2B2E480839183A283B3838E018C
:101BD0000B5B1F4FFE01E75BFF4F608171818281CC
:101BE000938120E030E04AEF54E40E941F02DC01C0
:101BF000CB01F80180839183A283B383FE01EB5B69
:101C0000FF4F608171818281938120E030E040E864
:101C10005FE30E942504882344F4FE01ED5BFF4F3F
:101C200081E090E09183808364C0FE01EB5BFF4F15
:101C3000608171818281938120E03FEF4FE757E41B
:101C40000E94C50318160CF043C0FE01E75BFF4F6E
:101C5000608171818281938120E030E040E251E433
:101C60000E941F02DC01CB018E010D5B1F4FBC01E6
:101C7000CD010E944900DC01CB01F80191838083F2
:101C80001FC0FE01EF5BFF4F88EC90E091838083E3
:101C9000FE01EF5BFF4F808191810197F1F7FE011B
:101CA000EF5BFF4F91838083DE01AD5BBF4FFE0191
:101CB000ED5BFF4F80819181019711969C938E93EC
:101CC000FE01ED5BFF4F808191810097D1F624C02A
:101CD0008E010D5B1F4FFE01EB5BFF4F6081718139
:101CE000828193810E944900DC01CB01F80191833C
:101CF0008083FE01ED5BFF4F80819181FE01FF96A5
:101D000091838083FE01FF96808191810197F1F795
:101D1000FE01FF9691838083FE01E15BFF4F80818E
:101D20000E949B1080E090E0A8E4B2E48BAF9CAFEF
:101D3000ADAFBEAF6BAD7CAD8DAD9EAD2BEA3AEADB
:101D40004AE250E40E941F02DC01CB018FAB98AF46
:101D5000A9AFBAAF6FA978AD89AD9AAD20E030E0F8
:101D600040E85FE30E94250488231CF481E08EABE9
:101D700091C06FA978AD89AD9AAD20E030E04FE712
:101D800053E40E94C50318160CF07BC06BAD7CAD0C
:101D90008DAD9EAD20E030E04AE754E40E94190387
:101DA000DC01CB018AAB9BABACABBDAB6AA97BA919
:101DB0008CA99DA920E030E04AEF54E40E941F0264
:101DC000DC01CB018EA79FA7A8ABB9AB6EA57FA501
:101DD00088A999A920E030E040E85FE30E9425044B
:101DE00088232CF481E090E09DA78CA73FC06EA5CE
:101DF0007FA588A999A920E03FEF4FE757E40E940B
:101E0000C50318164CF56AA97BA98CA99DA920E0E9
:101E100030E040E251E40E941F02DC01CB01BC0132
:101E2000CD010E944900DC01CB019DA78CA70FC00A
:101E300088EC90E09BA78AA78AA59BA50197F1F75C
:101E40009BA78AA78CA59DA501979DA78CA78CA56C
:101E50009DA5009769F724C06EA57FA588A999A9BB
:101E60000E944900DC01CB019DA78CA78CA59DA5F4
:101E700099A788A788A599A50197F1F799A788A799
:101E80000FC06FA978AD89AD9AAD0E944900DC0101
:101E9000CB018EAB8EA98FA38FA18A95F1F78FA36B
:101EA000FE01E25BFF4F80810E949B1080E090E08A
:101EB000A8E4B2E48BA39CA3ADA3BEA36BA17CA1B9
:101EC0008DA19EA12BEA3AEA4AE250E40E941F0249
:101ED000DC01CB018F8F98A3A9A3BAA36F8D78A142
:101EE00089A19AA120E030E040E85FE30E94250448
:101EF00088231CF481E08E8F91C06F8D78A189A119
:101F00009AA120E030E04FE753E40E94C503181681
:101F10000CF07BC06BA17CA18DA19EA120E030E0E4
:101F20004AE754E40E941903DC01CB018A8F9B8F9E
:101F3000AC8FBD8F6A8D7B8D8C8D9D8D20E030E0C8
:101F40004AEF54E40E941F02DC01CB018E8B9F8B71
:101F5000A88FB98F6E897F89888D998D20E030E0B8
:101F600040E85FE30E94250488232CF481E090E0A0
:101F70009D8B8C8B3FC06E897F89888D998D20E0E9
:101F80003FEF4FE757E40E94C50318164CF56A8DE2
:101F90007B8D8C8D9D8D20E030E040E251E40E94ED
:101FA0001F02DC01CB01BC01CD010E944900DC0114
:101FB000CB019D8B8C8B0FC088EC90E09B8B8A8B28
:101FC0008A899B890197F1F79B8B8A8B8C899D89E4
:101FD00001979D8B8C8B8C899D89009769F724C014
:101FE0006E897F89888D998D0E944900DC01CB0123
:101FF0009D8B8C8B8C899D89998B888B88899989FD
:102000000197F1F7998B888B0FC06F8D78A189A10B
:102010009AA10E944900DC01CB018E8F8E8D8F87A3
:102020008F858A95F1F78F8781E00E949B1080E071
:1020300090E0A0E0B0E48B879C87AD87BE876B857E
:102040007C858D859E8520E030E04AEF54E40E9437
:102050001F02DC01CB018F839887A987BA876F8124
:10206000788589859A8520E030E040E85FE30E942A
:10207000250488232CF481E090E09E838D833FC06B
:102080006F81788589859A8520E03FEF4FE757E497
:102090000E94C50318164CF56B857C858D859E8541
:1020A00020E030E040E251E40E941F02DC01CB015D
:1020B000BC01CD010E944900DC01CB019E838D83D0
:1020C0000FC088EC90E09C838B838B819C8101976F
:1020D000F1F79C838B838D819E8101979E838D83F5
:1020E0008D819E81009769F714C06F8178858985FD
:1020F0009A850E944900DC01CB019E838D838D81EE
:102100009E819A83898389819A810197F1F79A83C5
:102110008983FE01E35BFF4F80810E949B10C15BBE
:10212000DF4F0FB6F894DEBF0FBECDBFCF91DF916A
:102130001F910F910895DF93CF93CDB7DEB76997C5
:102140000FB6F894DEBF0FBECDBF898F82E060E08E
:1021500041E00E94970A82E061E041E00E94970A14
:1021600082E062E042E00E94970A83E0698D0E946B
:10217000EF0882E062E041E00E94970A80E090E090
:10218000A0E8BFE38D8B9E8BAF8BB88F6D897E8966
:102190008F89988D2BEA3AEA4AE250E40E941F02A6
:1021A000DC01CB01898B9A8BAB8BBC8B69897A89DB
:1021B0008B899C8920E030E040E85FE30E942504A1
:1021C00088231CF481E0888B91C069897A898B8986
:1021D0009C8920E030E04FE753E40E94C5031816C5
:1021E0000CF07BC06D897E898F89988D20E030E06E
:1021F0004AE754E40E941903DC01CB018C879D87D8
:10220000AE87BF876C857D858E859F8520E030E019
:102210004AEF54E40E941F02DC01CB0188879987B2
:10222000AA87BB87688579858A859B8520E030E011
:1022300040E85FE30E94250488232CF481E090E0CD
:102240009F838E833FC0688579858A859B8520E042
:102250003FEF4FE757E40E94C50318164CF56C8515
:102260007D858E859F8520E030E040E251E40E942C
:102270001F02DC01CB01BC01CD010E944900DC0141
:10228000CB019F838E830FC088EC90E09D838C836D
:102290008C819D810197F1F79D838C838E819F8135
:1022A00001979F838E838E819F81009769F724C059
:1022B000688579858A859B850E944900DC01CB0170
:1022C0009F838E838E819F819B838A838A819B815A
:1022D0000197F1F79B838A830FC069897A898B897B
:1022E0009C890E944900DC01CB01888B8889898305
:1022F00089818A95F1F7898369960FB6F894DEBFD4
:102300000FBECDBFCF91DF910895DF93CF93CDB7AF
:10231000DEB769970FB6F894DEBF0FBECDBF898FC9
:1023200082E060E042E00E94970A82E061E041E0E2
:102330000E94970A82E062E042E00E94970A83E0EE
:10234000698D0E94EF0882E062E041E00E94970AF6
:1023500080E090E0A0E8BFE38D8B9E8BAF8BB88FC1
:102360006D897E898F89988D2BEA3AEA4AE250E49A
:102370000E941F02DC01CB01898B9A8BAB8BBC8B3B
:1023800069897A898B899C8920E030E040E85FE3A5
:102390000E94250488231CF481E0888B91C0698900
:1023A0007A898B899C8920E030E04FE753E40E94D2
:1023B000C50318160CF07BC06D897E898F89988DB6
:1023C00020E030E04AE754E40E941903DC01CB012D
:1023D0008C879D87AE87BF876C857D858E859F8521
:1023E00020E030E04AEF54E40E941F02DC01CB0100
:1023F00088879987AA87BB87688579858A859B8521
:1024000020E030E040E85FE30E94250488232CF4BC
:1024100081E090E09F838E833FC0688579858A85BF
:102420009B8520E03FEF4FE757E40E94C503181655
:102430004CF56C857D858E859F8520E030E040E2FF
:1024400051E40E941F02DC01CB01BC01CD010E94BE
:102450004900DC01CB019F838E830FC088EC90E0A4
:102460009D838C838C819D810197F1F79D838C8363
:102470008E819F8101979F838E838E819F8100979C
:1024800069F724C0688579858A859B850E94490003
:10249000DC01CB019F838E838E819F819B838A8306
:1024A0008A819B810197F1F79B838A830FC0698999
:1024B0007A898B899C890E944900DC01CB01888B39
:1024C0008889898389818A95F1F7898369960FB60E
:1024D000F894DEBF0FBECDBFCF91DF910895DF939B
:1024E000CF93CDB7DEB768970FB6F894DEBF0FBEB7
:1024F000CDBF81E00E949B1080E090E0A8ECB2E4A8
:102500008D8B9E8BAF8BB88F6D897E898F89988DCF
:102510002BEA3AEA4AE250E40E941F02DC01CB01B6
:10252000898B9A8BAB8BBC8B69897A898B899C89C7
:1025300020E030E040E85FE30E94250488231CF49B
:1025400081E0888B91C069897A898B899C8920E098
:1025500030E04FE753E40E94C50318160CF07BC02F
:102560006D897E898F89988D20E030E04AE754E4B8
:102570000E941903DC01CB018C879D87AE87BF8742
:102580006C857D858E859F8520E030E04AEF54E4A0
:102590000E941F02DC01CB0188879987AA87BB872D
:1025A000688579858A859B8520E030E040E85FE397
:1025B0000E94250488232CF481E090E09F838E8381
:1025C0003FC0688579858A859B8520E03FEF4FE78E
:1025D00057E40E94C50318164CF56C857D858E85E1
:1025E0009F8520E030E040E251E40E941F02DC01C0
:1025F000CB01BC01CD010E944900DC01CB019F83CE
:102600008E830FC088EC90E09D838C838C819D81AC
:102610000197F1F79D838C838E819F8101979F8322
:102620008E838E819F81009769F724C068857985A4
:102630008A859B850E944900DC01CB019F838E83A4
:102640008E819F819B838A838A819B810197F1F789
:102650009B838A830FC069897A898B899C890E94B0
:102660004900DC01CB01888B8889898389818A951F
:10267000F1F7898368960FB6F894DEBF0FBECDBF21
:10268000CF91DF910895DF93CF9300D000D000D099
:10269000CDB7DEB78B836C8381E08A8380E8898342
:1026A0008B81282F30E03E832D838D819E81813068
:1026B000910531F02D813E812230310581F01EC01F
:1026C0008C81813448F49C818981890F8150898370
:1026D00089810E949B1014C082E08A8311C08C8182
:1026E000813148F49C818981890F815C898389814A
:1026F0000E949B1005C082E08A8302C083E08A8327
:102700008A8126960FB6F894DEBF0FBECDBFCF915B
:10271000DF910895DF93CF9300D00F92CDB7DEB74E
:102720009B838A8319820EC08981282F30E08A8199
:102730009B81FC01E20FF31F80810E94851189813A
:102740008F5F89838981282F30E08A819B81FC01FA
:10275000E20FF31F8081882339F70F900F900F90BD
:10276000CF91DF910895DF93CF93CDB7DEB72A974E
:102770000FB6F894DEBF0FBECDBF6F837887898711
:102780009A878F819885A985BA850097A105B1059B
:1027900009F48BC01B821C821D821E821A82198240
:1027A0003FC08F819885A985BA852AE030E040E056
:1027B00050E0BC01CD010E94B019DC01CB018A833D
:1027C0008B819C81AD81BE812AE030E040E050E009
:1027D000BC01CD010E9491199B01AC018A81882F17
:1027E00090E0A0E0B0E0820F931FA41FB51F8B8381
:1027F0009C83AD83BE838F819885A985BA852AE0A5
:1028000030E040E050E0BC01CD010E94B019DA0197
:10281000C9018F839887A987BA8789818F5F898348
:102820008F819885A985BA850097A105B10509F022
:10283000B8CF28C08B819C81AD81BE812AE030E079
:1028400040E050E0BC01CD010E94B019DC01CB0199
:102850008A838B819C81AD81BE812AE030E040E09B
:1028600050E0BC01CD010E94B019DA01C9018B838F
:102870009C83AD83BE838A81805D0E94851189819E
:10288000815089838B819C81AD81BE810097A10598
:10289000B10581F606C080E30E94851189818150CF
:1028A000898389818823B9F703C080E30E94851159
:1028B0002A960FB6F894DEBF0FBECDBFCF91DF9141
:1028C0000895DF93CF930F92CDB7DEB788E1898368
:1028D00089818460898389810E949B100F90CF91A8
:1028E000DF910895DF93CF930F92CDB7DEB788E1E4
:1028F000898389818B7F898389810E949B100F90B6
:10290000CF91DF910895DF93CF930F92CDB7DEB7CC
:1029100080E1898389818B7F898389810E949B10D3
:102920000F90CF91DF910895DF93CF930F92CDB7A2
:10293000DEB780E1898389818460898389810E94EF
:102940009B100F90CF91DF910895DF93CF93CDB778
:10295000DEB70E94680CCF91DF910895DF93CF938B
:1029600000D000D000D0CDB7DEB78A837C836B83E4
:1029700081E089838A81282F30E03E832D838D81F9
:102980009E818330910599F12D813E81243031055E
:102990007CF48D819E818130910519F12D813E81DC
:1029A000223031050CF58D819E810097B9F065C00C
:1029B0002D813E8125303105B1F18D819E8185309B
:1029C00091051CF12D813E8126303105D1F18D819B
:1029D0009E818730910509F442C04FC082E089830F
:1029E0004EC082E089834BC082E0898348C083E087
:1029F0000E94920C0E94F50CDC01CB01EB81FC8162
:102A000080839183A283B3833AC084E00E94920CB6
:102A10000E94F50CDC01CB01EB81FC81808391836A
:102A2000A283B3832CC085E00E94920C0E94F50C17
:102A3000DC01CB01EB81FC8180839183A283B38392
:102A40001EC086E00E94920C0E94F50CDC01CB01B6
:102A5000EB81FC8180839183A283B38310C087E0E4
:102A60000E94920C0E94F50CDC01CB01EB81FC81F1
:102A700080839183A283B38302C083E089838981A9
:102A800026960FB6F894DEBF0FBECDBFCF91DF9173
:102A90000895DF93CF93CDB7DEB728970FB6F8949C
:102AA000DEBF0FBECDBF8E8378876F8381E08983C1
:102AB00080E090E0A0E0B0E08A839B83AC83BD839C
:102AC0009E012E5F3F4F8E81B9010E94AE14898313
:102AD0002A813B814C815D8160E070E48CE995E462
:102AE0000E94C101DC01CB01BC01CD0120E030E03E
:102AF00046E953E40E941F02DC01CB012A813B819D
:102B00004C815D81BC01CD010E941903DC01CB0128
:102B1000EF81F88580839183A283B383898128968E
:102B20000FB6F894DEBF0FBECDBFCF91DF910895F1
:102B3000DF93CF93CDB7DEB72B970FB6F894DEBFF8
:102B40000FBECDBF1982CE01029698878F83E8E829
:102B5000F1E0FA87E987F5E0FB87E985FA850080EF
:102B600089859A8501969A878987EF81F885008201
:102B70008F819885019698878F839B8591509B873D
:102B8000EB85EE2351F7CE0102960E94470789811B
:102B90002B960FB6F894DEBF0FBECDBFCF91DF915D
:102BA0000895DF93CF9300D000D000D0CDB7DEB72B
:102BB0008C837E836D831B821A8219828C81282FDD
:102BC00030E08BEF9EEFAC01421B530B9A018D81DD
:102BD0009E81892F9927882F90E0281B390B8D81A2
:102BE000882F90E0A901481B590BCA019A83898359
:102BF0008C81882391F18C818E3478F58EE790E07A
:102C00000E94F8078FEF90E00E94F80786E090E0BE
:102C10000E94F8078C81882F90E00E94F80780E0DE
:102C200090E00E94F8078D819E81892F99270E944C
:102C3000F8078D819E810E94F80789819A81892FEA
:102C4000990F990B0E94F80789819A810E94F807D1
:102C50008FEE90E00E94F80702C081E08B838B81A9
:102C600026960FB6F894DEBF0FBECDBFCF91DF9191
:102C70000895DF93CF93CDB7DEB72F970FB6F894B3
:102C8000DEBF0FBECDBF0E9498150E94920D0E941C
:102C9000A5140E94FB1786E06EE170E00E94D1153A
:102CA00080919A018134A9F580919B01813489F545
:102CB00080919C01813469F580919D01813449F5B1
:102CC00080919E01813429F582E06AE00E944313DD
:102CD00080E690E00E948A1380919601882309F093
:102CE00017C183E065E070E00E94D1151F860AC01D
:102CF0008F85882F90E0FC01EE56FE4F10828F8565
:102D00008F5F8F878F85853098F381E08093960160
:102D1000FFC080919A018134C9F480919B01823473
:102D2000A9F480919C01823489F480919D018234C0
:102D300069F480919E01823449F482E06AE00E9445
:102D4000431385E690E00E948A13E2C080919A01C5
:102D50008234A9F580919B01813489F580919C0191
:102D6000823469F580919D01823449F580919E01FC
:102D7000823429F582E06AE00E9443138DE690E0F8
:102D80000E948A1380919201882309F0C1C083E0D8
:102D900061E070E00E94D1151F860AC08F85882FE0
:102DA00090E0FC01EE56FE4F10828F858F5F8F877B
:102DB0008F85853098F381E080939201A9C080913E
:102DC0009A018234A9F580919B01813489F5809123
:102DD0009C01813469F580919D01823449F580918F
:102DE0009E01823429F582E06AE00E94431381E764
:102DF00090E00E948A1380919301882309F088C093
:102E000083E062E070E00E94D1151F860AC08F85C2
:102E1000882F90E0FC01EE56FE4F10828F858F5F69
:102E20008F878F85853098F381E08093930170C000
:102E300080919A018234A9F580919B01813489F5B2
:102E400080919C01813469F580919D01813449F51F
:102E500080919E01823429F582E06AE00E9443134A
:102E600085E790E00E948A1380919401882309F0FD
:102E70004FC083E063E070E00E94D1151F860AC056
:102E80008F85882F90E0FC01EE56FE4F10828F85D3
:102E90008F5F8F878F85853098F381E080939401D1
:102EA00037C080919A01823499F580919B018134D9
:102EB00079F580919C01813459F580919D0181348F
:102EC00039F580919E01813419F582E06AE00E9413
:102ED00043138BE790E00E948A1380919501882329
:102EE000B9F483E064E070E00E94D1151F860AC047
:102EF0008F85882F90E0FC01EE56FE4F10828F8563
:102F00008F5F8F878F85853098F381E0809395015F
:102F100080E090E0A8E4B3E48B879C87AD87BE8710
:102F20006B857C858D859E8520E030E04AEF54E4FA
:102F30000E941F02DC01CB018F839887A987BA8783
:102F40006F81788589859A8520E030E040E85FE3ED
:102F50000E94250488232CF481E090E09E838D83D9
:102F60003FC06F81788589859A8520E03FEF4FE7E4
:102F700057E40E94C50318164CF56B857C858D853A
:102F80009E8520E030E040E251E40E941F02DC0117
:102F9000CB01BC01CD010E944900DC01CB019E8325
:102FA0008D830FC088EC90E09C838B838B819C8108
:102FB0000197F1F79C838B838D819E8101979E837E
:102FC0008D838D819E81009769F763CE6F817885AF
:102FD00089859A850E944900DC01CB019E838D83FF
:102FE0008D819E819A83898389819A810197F1F7E6
:102FF0009A8389834ECEDF93CF9300D000D0CDB794
:10300000DEB780E090E0A0E0B0E089839A83AB83F4
:10301000BC830E946F1283E09E012F5F3F4FB90176
:103020000E94491581E061E00E94431389819A81E1
:10303000AB81BC81BC01CD0120E030E04AE754E423
:103040000E941903DC01CB01BC01CD010E944900A3
:10305000DC01CB01BC01CD010E94B31389819A81AF
:10306000AB81BC81BC01CD0143E00E94EE1884E03D
:103070009E012F5F3F4FB9010E94491581E065E035
:103080000E94431389819A81AB81BC81BC01CD012F
:1030900020E030E04AE754E40E941903DC01CB0150
:1030A000BC01CD010E944900DC01CB01BC01CD0176
:1030B0000E94B31389819A81AB81BC81BC01CD018F
:1030C00044E00E94EE1885E09E012F5F3F4FB9015A
:1030D0000E94491581E069E00E94431389819A8129
:1030E000AB81BC81BC01CD0120E030E04AE754E473
:1030F0000E941903DC01CB01BC01CD010E944900F3
:10310000DC01CB01BC01CD010E94B31389819A81FE
:10311000AB81BC81BC01CD0145E00E94EE1886E088
:103120009E012F5F3F4FB9010E94491582E061E087
:103130000E94431389819A81AB81BC81BC01CD017E
:1031400020E030E04AE754E40E941903DC01CB019F
:10315000BC01CD010E944900DC01CB01BC01CD01C5
:103160000E94B31389819A81AB81BC81BC01CD01DE
:1031700046E00E94EE1887E09E012F5F3F4FB901A5
:103180000E94491582E065E00E94431389819A817B
:10319000AB81BC81BC01CD0120E030E04AE754E4C2
:1031A0000E941903DC01CB01BC01CD010E94490042
:1031B000DC01CB01BC01CD010E94B31389819A814E
:1031C000AB81BC81BC01CD0147E00E94EE180F909D
:1031D0000F900F900F90CF91DF910895DF93CF93D1
:1031E000CDB7DEB727970FB6F894DEBF0FBECDBFC1
:1031F00069837A838B839C834D838D81282F30E074
:103200003F832E838E819F818530910509F445C0CF
:103210002E813F81263031055CF48E819F81833081
:10322000910599F02E813F812430310511F170C054
:103230008E819F818630910509F443C02E813F81A4
:103240002730310509F451C063C069817A818B81CF
:103250009C8120E038EB48E057E40E9455041816A2
:1032600024F081E480939A0153C082E480939A0110
:103270004FC069817A818B819C8120E030E04AEFE8
:1032800056E40E945504181624F081E480939B01B3
:103290003FC082E480939B013BC069817A818B812E
:1032A0009C8120E038E548E157E40E945504181657
:1032B00024F081E480939C012BC082E480939C01E4
:1032C00027C069817A818B819C8120E030E44CE1C8
:1032D00057E40E945504181624F081E480939D0160
:1032E00017C082E480939D0113C069817A818B812C
:1032F0009C8120E030E44CE157E40E94550418160C
:1033000024F081E480939E0103C082E480939E01B7
:1033100027960FB6F894DEBF0FBECDBFCF91DF91D9
:103320000895629FD001739FF001829FE00DF11D0F
:10333000649FE00DF11D929FF00D839FF00D749F2F
:10334000F00D659FF00D9927729FB00DE11DF91FDB
:10335000639FB00DE11DF91FBD01CF011124089538
:10336000A1E21A2EAA1BBB1BFD010DC0AA1FBB1F89
:10337000EE1FFF1FA217B307E407F50720F0A21BFB
:10338000B30BE40BF50B661F771F881F991F1A9468
:1033900069F760957095809590959B01AC01BD0192
:1033A000CF0108952F923F924F925F926F927F923A
:1033B0008F929F92AF92BF92CF92DF92EF92FF9245
:1033C0000F931F93CF93DF93CDB7DEB7CA1BDB0BF1
:1033D0000FB6F894DEBF0FBECDBF09942A88398896
:1033E00048885F846E847D848C849B84AA84B9849D
:1033F000C884DF80EE80FD800C811B81AA81B981A9
:10340000CE0FD11D0FB6F894DEBF0FBECDBFED01BC
:063410000895F894FFCFBF
:1034160046697665005468756D625570004F6E6535
:103426000054776F00546872656500466F757200C8
:103436000000000000000000000102020303030375
:10344600040404040404040405050505050505052E
:10345600050505050505050506060606060606060E
:1034660006060606060606060606060606060606F6
:1034760006060606060606060707070707070707DE
:1034860007070707070707070707070707070707C6
:1034960007070707070707070707070707070707B6
:1034A60007070707070707070707070707070707A6
:1034B600070707070707070708080808080808088E
:1034C6000808080808080808080808080808080876
:1034D6000808080808080808080808080808080866
:1034E6000808080808080808080808080808080856
:1034F6000808080808080808080808080808080846
:103506000808080808080808080808080808080835
:103516000808080808080808080808080808080825
:103526000808080808080808080808080808080815
:0E353600080808080808080803030000000041
:00000001FF
